:020000040800F2
:1000000000000220290A00087B0A0008870A00086D
:100010008D0A0008930A0008990A000800000000F1
:100020000000000000000000000000009F0A00081F
:10003000AB0A000800000000B70A0008C30A000865
:10004000790A0008790A0008790A0008790A000884
:10005000790A0008790A0008790A0008790A000874
:10006000790A0008790A0008790A0008790A000864
:10007000790A0008790A0008790A0008790A000854
:10008000790A0008790A0008790A0008790A000844
:10009000790A0008790A0008790A0008790A000834
:1000A000790A0008790A0008790A0008790A000824
:1000B00015090008790A0008790A0008790A000879
:1000C000790A0008790A0008790A0008790A000804
:1000D000790A0008790A0008790A0008790A0008F4
:1000E000790A0008790A0008790A0008790A0008E4
:1000F000790A0008790A0008790A0008790A0008D4
:10010000790A0008790A0008790A0008790A0008C3
:10011000790A0008790A0008790A0008790A0008B3
:10012000790A0008790A0008790A0008790A0008A3
:10013000790A0008790A0008790A0008790A000893
:10014000790A0008790A0008790A0008790A000883
:10015000790A0008790A0008790A0008790A000873
:10016000790A0008790A0008790A0008790A000863
:10017000790A0008790A0008790A0008790A000853
:08018000790A0008790A000861
:1001880010B5054C237833B9044B13B10448AFF3C9
:1001980000800123237010BD04000020000000002F
:1001A800680C000808B5034B1BB103490348AFF3BB
:1001B800008008BD0000000008000020680C00084E
:1001C80080B485B000AF78600023FB730023BB7355
:1001D8000F237B737B68DB78002B39D0274BDB68D8
:1001E800DB431B0ADBB203F00703FB73FB7BC3F1A2
:1001F8000403BB737A7BFB7B42FA03F37B737B6854
:100208005B781A46BB7B02FA03F3FB737B689A7828
:100218007B7B1340DAB2FB7B1343FB73FB7B1B0135
:10022800FB73174A7B681B781344FA7B83F8002317
:10023800134A7B681B785B09DBB218467B681B781E
:1002480003F01F03012101FA03F342F820300FE005
:100258000B497B681B785B09DBB218467B681B7807
:1002680003F01F0301229A4000F1200341F82320E4
:1002780000BF1437BD4680BC704700BF00ED00E0EA
:1002880000E100E080B487B000AF786039600023F7
:100298007B6100233B610023FB6000237B6176E0E8
:1002A80001227B6902FA03F33B613B681A683B69E8
:1002B8001340FB60FA683B699A4265D17B681A680B
:1002C8007B695B00032101FA03F3DB431A407B6877
:1002D8001A607B681A683B681B7919467B695B0062
:1002E80001FA03F31A437B681A603B681B79012BF8
:1002F80003D03B681B79022B2ED17B689A687B69F7
:100308005B00032101FA03F3DB431A407B689A6020
:100318007B689A683B685B7919467B695B0001FAE0
:1003280003F31A437B689A607B685A687B699BB2BF
:10033800194601238B40DB431A407B685A607B686F
:100348005B683A68927911467A6992B201FA02F2C8
:1003580092B21A437B685A607B68DA687B699BB201
:100368005B00032101FA03F3DB431A407B68DA6080
:100378007B68DA683B68DB7919467B695B0001FAC0
:1003880003F31A437B68DA607B6901337B617B691D
:100398000F2B85D900BF1C37BD4680BC704780B481
:1003A80085B000AF78600B467B800023FB737B68C9
:1003B8001A697B881340002B02D00123FB7301E0EC
:1003C8000023FB73FB7B18461437BD4680BC70477F
:1003D80080B485B000AF78600B467B800023FB7348
:1003E8007B685A697B881340002B02D00123FB737A
:1003F80001E00023FB73FB7B18461437BD4680BC25
:10040800704780B483B000AF78600B467B807B6810
:100418007A881A8300BF0C37BD4680BC704780B409
:1004280083B000AF78600B467B807B687A885A83FC
:1004380000BF0C37BD4680BC7047000080B483B055
:1004480000AF78600B46FB70FB78002B06D009499B
:10045800084B1A6B7B6813430B6306E00549054B91
:100468001A6B7B68DB4313400B6300BF0C37BD4638
:1004780080BC70470038024080B483B000AF786019
:100488000B46FB70FB78002B06D00949084B1A6C09
:100498007B6813430B6406E00549054B1A6C7B68BF
:1004A800DB4313400B6400BF0C37BD4680BC70476C
:1004B8000038024080B485B000AF7860396000230E
:1004C800FB817B681B88FB817B68284A934213D099
:1004D8007B68274A93420FD07B68B3F1804F0BD0DB
:1004E8007B68244A934207D07B68234A934203D00F
:1004F8007B68224A934208D1FB8923F07003FB8171
:100508003B685A88FB891343FB817B681C4A9342EA
:100518000CD07B681B4A934208D0FB8923F44073B4
:10052800FB813B681A89FB891343FB817B68FA8945
:100538001A803B685A687B68DA623B681A887B686D
:100548001A857B68094A934203D07B68084A93421C
:1005580004D13B689B7A9AB27B681A867B68012231
:100568009A8200BF1437BD4680BC70470000014026
:10057800000401400004004000080040000C004056
:10058800001000400014004080B483B000AF7860D1
:100598000B46FB70FB78002B08D07B681B889BB24E
:1005A80043F001039AB27B681A8007E07B681B88D6
:1005B8009BB223F001039AB27B681A8000BF0C3704
:1005C800BD4680BC704780B483B000AF78600B46EE
:1005D8007B8013467B707B78002B08D07B689B89D7
:1005E8009AB27B8813439AB27B689A8109E07B6848
:1005F8009B899AB27B88DB439BB213409AB27B6893
:100608009A8100BF0C37BD4680BC704780B485B066
:1006180000AF78600B467B800023FB730023BB810F
:1006280000237B817B681B8A9AB27B881340BB813D
:100638007B689B899AB27B8813407B81BB89002B9E
:1006480005D07B89002B02D00123FB7301E0002336
:10065800FB73FB7B18461437BD4680BC704780B4DB
:1006680083B000AF78600B467B807B88DB439AB20F
:100678007B681A8200BF0C37BD4680BC70470000FB
:1006880080B582B000AF00237B6000F05FF900F016
:100698007BF901211048FFF782FE0346012B0DD19B
:1006A8007B68012B05D04AF210414FF4C87000F066
:1006B80081F900F013F801237B60EAE77B68022BDD
:1006C80005D04AF210414FF47A7000F073F900F047
:1006D80091F802237B60DCE70000024080B500AFA0
:1006E800424B1B68013B032B7DD801A252F823F033
:1006F800090700083F07000875070008AB0700084E
:100708004FF480513A48FFF763FE0346002B04D0AC
:100718004FF480513648FFF782FE4FF48041344849
:10072800FFF756FE0346002B56D14FF48041304860
:10073800FFF767FE50E04FF480412D48FFF748FE71
:100748000346002B04D04FF480412948FFF767FE89
:100758004FF400512648FFF73BFE0346002B3DD1DE
:100768004FF400512248FFF74CFE37E04FF4005198
:100778001F48FFF72DFE0346002B04D04FF400510D
:100788001B48FFF74CFE4FF400411948FFF720FEC5
:100798000346002B24D14FF400411548FFF731FEE2
:1007A8001EE04FF400411248FFF712FE0346002BEB
:1007B80004D04FF400410E48FFF731FE4FF480514A
:1007C8000B48FFF705FE0346002B0BD14FF4805171
:1007D8000748FFF716FE05E000BF04E000BF02E08F
:1007E80000BF00E000BF00BF80BD00BF00000020C8
:1007F800000C024080B500AF424B1B68013B032B45
:100808007DD801A252F823F02108000857080008F3
:100818008D080008C30800084FF480413A48FFF7E4
:10082800D7FD0346002B04D04FF480413648FFF72C
:10083800F6FD4FF480513448FFF7CAFD0346002BFC
:1008480056D14FF480513048FFF7DBFD50E04FF4AC
:1008580080512D48FFF7BCFD0346002B04D04FF410
:1008680080512948FFF7DBFD4FF400412648FFF788
:10087800AFFD0346002B3DD14FF400412248FFF75E
:10088800C0FD37E04FF400411F48FFF7A1FD0346C4
:10089800002B04D04FF400411B48FFF7C0FD4FF474
:1008A80000511948FFF794FD0346002B24D14FF45B
:1008B80000511548FFF7A5FD1EE04FF400511248FE
:1008C800FFF786FD0346002B04D04FF400510E4875
:1008D800FFF7A5FD4FF480410B48FFF779FD03466C
:1008E800002B0BD14FF480410748FFF78AFD05E044
:1008F80000BF04E000BF02E000BF00E000BF00BF8F
:1009080080BD00BF00000020000C024080B500AF91
:1009180001214FF08040FFF779FE0346002B11D0EC
:1009280001214FF08040FFF79AFE074B1B68042B0C
:1009380005D0054B1B680133034A136002E0024BE4
:1009480001221A6000BF80BD0000002080B582B07F
:1009580000AF01210820FFF771FD4FF470433B60A1
:1009680001233B7103237B710023BB710023FB71BF
:100978003B4619460348FFF785FC00BF0837BD46CC
:1009880080BD00BF000C024080B582B000AF0121DD
:100998000120FFF753FD01233B6000233B713B46D9
:1009A80019460348FFF76EFC00BF0837BD4680BDF7
:1009B8000000024080B586B000AF786039601C2323
:1009C8003B7500237B750123BB750123FB7507F17C
:1009D80014031846FFF7F4FB01210120FFF74CFD33
:1009E8003B689BB23B817B68FB6000233B82002312
:1009F8007B8107F1080319464FF08040FFF75AFD45
:100A0800012201214FF08040FFF7DDFD01214FF069
:100A18008040FFF7B9FD00BF1837BD4680BD000014
:100A2800DFF834D0002103E00C4B5B58435004310D
:100A38000B480C4B42189A42F6D30B4A02E00023AB
:100A480042F8043B094B9A42F9D300F03DF800F014
:100A5800E3F8FFF715FE704700000220880C000835
:100A680000000020040000200400002020000020D6
:100A7800FEE780B400AF00BFBD4680BC704780B4BD
:100A880000AFFEE780B400AFFEE780B400AFFEE73A
:100A980080B400AFFEE780B400AF00BFBD4680BCA5
:100AA800704780B400AF00BFBD4680BC704780B4BB
:100AB80000AF00BFBD4680BC704780B400AF00BF28
:100AC800BD4680BC7047000080B500AF124A124B8B
:100AD8001B6843F0010313600F4B00229A600E4A13
:100AE8000D4B1B6823F0847323F4803313600A4B87
:100AF8000A4A5A60084A084B1B6823F4802313608B
:100B0800054B0022DA6000F00DF8054B4FF000624B
:100B18009A6000BF80BD00BF00380240103000243A
:100B280000ED00E080B483B000AF00237B600023B9
:100B38003B60354A344B1B6843F480331360324BB7
:100B48001B6803F400333B607B6801337B603B68C0
:100B5800002B03D17B68B3F5A06FF0D12A4B1B683B
:100B680003F40033002B02D001233B6001E0002393
:100B78003B603B68012B42D1234A234B1B6C43F05B
:100B880080531364214A214B1B6843F4404313608C
:100B98001D4A1D4B9B6893601B4A1B4B9B6843F483
:100BA80000439360184A184B9B6843F4A053936022
:100BB800154B174A5A60144A134B1B6843F080734D
:100BC800136000BF104B1B6803F00073002BF9D0B3
:100BD800104B40F205721A600B4A0B4B9B6823F0CE
:100BE80003039360084A084B9B6843F00203936031
:100BF80000BF054B9B6803F00C03082BF9D100BF1D
:100C08000C37BD4680BC7047003802400070004079
:100C180019544007003C024070B50D4E0D4CA41B02
:100C2800A4100025A54209D10B4E0C4C00F018F871
:100C3800A41BA4100025A54205D170BD56F8253087
:100C480098470135EEE756F8253098470135F2E721
:100C5800800C0008800C0008800C0008840C000838
:100C6800F8B500BFF8BC08BC9E467047F8B500BF91
:080C7800F8BC08BC9E46704761
:040C8000AD010008BA
:040C840089010008DA
:040C88000100000067
:0400000508000A29BC
:00000001FF
