:020000040800F2
:1000000000000220A1090008F3090008FF09000808
:10001000050A00080B0A0008110A00080000000089
:10002000000000000000000000000000170A0008A7
:10003000230A0008000000002F0A00083B0A0008FD
:10004000F1090008F1090008F1090008F1090008A8
:10005000F1090008F1090008F1090008F109000898
:10006000F1090008F1090008F1090008F109000888
:10007000F1090008F1090008F1090008F109000878
:10008000F1090008F1090008F1090008F109000868
:10009000F1090008F1090008F1090008F109000858
:1000A000F1090008F1090008F1090008F109000848
:1000B000F1090008F1090008F1090008F109000838
:1000C000F1090008F1090008F1090008F109000828
:1000D000F1090008F1090008F1090008F109000818
:1000E000F1090008F1090008F1090008F109000808
:1000F000F1090008F1090008F1090008F1090008F8
:10010000F1090008F1090008F1090008F1090008E7
:10011000F1090008F1090008F1090008F1090008D7
:10012000F1090008F1090008F1090008F1090008C7
:10013000F1090008F1090008F1090008F1090008B7
:10014000F1090008F1090008F1090008F1090008A7
:10015000F1090008F1090008F1090008F109000897
:10016000F1090008F1090008F1090008F109000887
:10017000F1090008F1090008F1090008F109000877
:08018000F1090008F109000873
:1001880010B5054C237833B9044B13B10448AFF3C9
:1001980000800123237010BD000000200000000033
:1001A800E00B000808B5034B1BB103490348AFF344
:1001B800008008BD0000000004000020E00B0008DB
:1001C80080B487B000AF7860396000237B6100237A
:1001D8003B610023FB6000237B6176E001227B69A1
:1001E80002FA03F33B613B681A683B691340FB6002
:1001F800FA683B699A4265D17B681A687B695B003B
:10020800032101FA03F3DB431A407B681A607B6819
:100218001A683B681B7919467B695B0001FA03F38E
:100228001A437B681A603B681B79012B03D03B6833
:100238001B79022B2ED17B689A687B695B000321AE
:1002480001FA03F3DB431A407B689A607B689A687B
:100258003B685B7919467B695B0001FA03F31A4333
:100268007B689A607B685A687B699BB21946012350
:100278008B40DB431A407B685A607B685B683A684E
:10028800927911467A6992B201FA02F292B21A434D
:100298007B685A607B68DA687B699BB25B000321E4
:1002A80001FA03F3DB431A407B68DA607B68DA689B
:1002B8003B68DB7919467B695B0001FA03F31A4353
:1002C8007B68DA607B6901337B617B690F2B85D999
:1002D80000BF1C37BD4680BC704780B485B000AFF6
:1002E80078600B467B8013467B700023FB600023FD
:1002F800BB607A787B8803F007039B0002FA03F35C
:10030800FB607B88DB089BB218467B88DB089BB2C6
:100318001A467B68083253F822207B8803F00703CB
:100328009B000F2101FA03F3DB4302EA03017B6818
:1003380000F1080243F822107B88DB089BB21A46BA
:100348007B68083253F82220FB681343BB607B8824
:10035800DB089BB21A467B680832B96843F822105A
:1003680000BF1437BD4680BC7047000080B483B01E
:1003780000AF78600B46FB70FB78002B06D009496C
:10038800084B1A6B7B6813430B6306E00549054B62
:100398001A6B7B68DB4313400B6300BF0C37BD4609
:1003A80080BC70470038024080B483B000AF7860EA
:1003B8000B46FB70FB78002B06D00949084B1A6CDA
:1003C8007B6813430B6406E00549054B1A6C7B6890
:1003D800DB4313400B6400BF0C37BD4680BC70473D
:1003E8000038024080B485B000AF786039600023DF
:1003F800FB817B681B88FB817B68284A934213D06A
:100408007B68274A93420FD07B68B3F1804F0BD0AB
:100418007B68244A934207D07B68234A934203D0DF
:100428007B68224A934208D1FB8923F07003FB8141
:100438003B685A88FB891343FB817B681C4A9342BB
:100448000CD07B681B4A934208D0FB8923F4407385
:10045800FB813B681A89FB891343FB817B68FA8916
:100468001A803B685A687B68DA623B681A887B683E
:100478001A857B68094A934203D07B68084A9342ED
:1004880004D13B689B7A9AB27B681A867B68012202
:100498009A8200BF1437BD4680BC704700000140F7
:1004A800000401400004004000080040000C004027
:1004B800001000400014004080B483B000AF7860A2
:1004C8007B684FF0FF325A607B6800221A807B6895
:1004D80000221A817B6800225A807B6800229A7267
:1004E80000BF0C37BD4680BC704780B483B000AFF6
:1004F800786039607B683A685A6200BF0C37BD463D
:1005080080BC704780B483B000AF78600B46FB7046
:10051800FB78002B08D07B681B889BB243F0010353
:100528009AB27B681A8007E07B681B889BB223F02D
:1005380001039AB27B681A8000BF0C37BD4680BCA5
:100548007047000080B485B000AF78603960002340
:100558007B810023FB810023BB817B681B8C9BB2C2
:1005680023F010039AB27B681A847B681B8CFB818A
:100578007B689B88BB817B681B8B7B817B8923F491
:10058800E0437B817B8923F440737B813B681B8834
:100598001B029AB27B8913437B81FB8923F02003DA
:1005A800FB813B689B891B019AB2FB891343FB8142
:1005B8003B685B881B019AB2FB891343FB817B680C
:1005C800224A934203D07B68214A93422BD1FB896C
:1005D80023F08003FB813B68DB891B019AB2FB890E
:1005E8001343FB81FB8923F04003FB813B689B8815
:1005F8001B019AB2FB891343FB81BB8923F48063F7
:10060800BB81BB8923F40063BB813B681B8A9B00C9
:100618009AB2BB891343BB813B685B8A9B009AB241
:10062800BB891343BB817B68BA899A807B687A89C6
:100638001A833B689A687B689A637B68FA891A848C
:1006480000BF1437BD4680BC704700BF00000140A2
:100658000004014080B485B000AF786039600023A1
:100668007B810023FB810023BB817B681B8C9BB2B1
:1006780023F480739AB27B681A847B681B8CFB8195
:100688007B689B88BB817B689B8B7B817B8923F004
:1006980070037B817B8923F003037B813B681A8885
:1006A8007B8913437B81FB8923F40073FB813B68BF
:1006B8009B891B029AB2FB891343FB813B685B88C9
:1006C8001B029AB2FB891343FB817B68224A93423F
:1006D80003D07B68214A93422BD1FB8923F4006322
:1006E800FB813B68DB891B029AB2FB891343FB81C0
:1006F800FB8923F48063FB813B689B881B029AB2C9
:10070800FB891343FB81BB8923F48053BB81BB89DD
:1007180023F40053BB813B681B8A1B019AB2BB8937
:100728001343BB813B685B8A1B019AB2BB891343A5
:10073800BB817B68BA899A807B687A899A833B688F
:100748009A687B68DA637B68FA891A8400BF143771
:10075800BD4680BC704700BF000001400004014056
:1007680080B483B000AF78607B6800221A807B6811
:1007780000225A807B6800229A807B6800229A6057
:100788007B6800229A817B680022DA817B680022DC
:100798001A827B6800225A8200BF0C37BD4680BC93
:1007A800704780B485B000AF78600B467B8000232B
:1007B800FB817B681B89FB81FB8923F07003FB812C
:1007C800FA897B881343FB817B68FA891A8100BF09
:1007D8001437BD4680BC704780B483B000AF7860E2
:1007E8000B467B807B689B889BB223F070039AB290
:1007F8007B689A807B689B889AB27B8813439AB2FD
:100808007B689A8000BF0C37BD4680BC704780B4B7
:1008180083B000AF78600B467B807B681B899BB2F6
:1008280023F007039AB27B681A817B681B899AB206
:100838007B8813439AB27B681A8100BF0C37BD4688
:1008480080BC704780B483B000AF78600B467B8073
:100858007B681B899BB223F080039AB27B681A815C
:100868007B681B899AB27B8813439AB27B681A818A
:1008780000BF0C37BD4680BC704780B500AF00F0A4
:1008880001F8FEE780B588B000AF01210420FFF72A
:100898008BFD01210220FFF787FD00F061F802229D
:1008A8000D212C48FFF719FD02220E212948FFF7D8
:1008B80014FD07F114031846FFF7FEFD0023BB8360
:1008C8000023FB8200239BB2BB821323BB6107F189
:1008D800140319462048FFF785FD07F1140319464C
:1008E8001E48FFF77FFD3B461846FFF739FF0F23E9
:1008F800BB6060233B8001237B800023BB813B4698
:1009080019461648FFF71EFE3B4619461248FFF7E0
:10091800A1FE10211048FFF75FFF80210E48FFF766
:1009280091FF30210D48FFF73CFF05210B48FFF7E9
:100938006EFF0A210948FFF7D8FD01210748FFF794
:10094800E1FD01210448FFF7DDFD00BF2037BD466A
:1009580080BD00BF000C02400008004000040040B9
:1009680080B582B000AF01210820FFF7FFFC4FF4EB
:10097800C0433B6002233B7100237B710023BB71A2
:100988003B4619460348FFF71BFC00BF0837BD4626
:1009980080BD00BF000C0240DFF834D0002103E026
:1009A8000C4B5B58435004310B480C4B42189A428D
:1009B800F6D30B4A02E0002342F8043B094B9A4263
:1009C800F9D300F03DF800F0E3F8FFF756FF704761
:1009D80000000220000C0008000000200000002099
:1009E800000000201C000020FEE780B400AF00BF1C
:1009F800BD4680BC704780B400AFFEE780B400AF4E
:100A0800FEE780B400AFFEE780B400AFFEE780B435
:100A180000AF00BFBD4680BC704780B400AF00BFC8
:100A2800BD4680BC704780B400AF00BFBD4680BCE7
:100A3800704780B400AF00BFBD4680BC704700005F
:100A480080B500AF124A124B1B6843F001031360D4
:100A58000F4B00229A600E4A0D4B1B6823F08473DB
:100A680023F4803313600A4B0A4A5A60084A084B39
:100A78001B6823F480231360054B0022DA6000F022
:100A88000DF8054B4FF000629A6000BF80BD00BFB3
:100A9800003802401030002400ED00E080B483B03C
:100AA80000AF00237B6000233B60354A344B1B6852
:100AB80043F480331360324B1B6803F400333B600C
:100AC8007B6801337B603B68002B03D17B68B3F5FF
:100AD800A06FF0D12A4B1B6803F40033002B02D01F
:100AE80001233B6001E000233B603B68012B42D1BE
:100AF800234A234B1B6C43F080531364214A214B38
:100B08001B6843F4404313601D4A1D4B9B68936068
:100B18001B4A1B4B9B6843F400439360184A184BCD
:100B28009B6843F4A0539360154B174A5A60144AC4
:100B3800134B1B6843F08073136000BF104B1B6896
:100B480003F00073002BF9D0104B40F205721A60C5
:100B58000B4A0B4B9B6823F003039360084A084B2E
:100B68009B6843F00203936000BF054B9B6803F04A
:100B78000C03082BF9D100BF0C37BD4680BC704769
:100B8800003802400070004019544007003C024001
:100B980070B50D4E0D4CA41BA4100025A54209D11B
:100BA8000B4E0C4C00F018F8A41BA4100025A5420D
:100BB80005D170BD56F8253098470135EEE756F84F
:100BC800253098470135F2E7F80B0008F80B0008C4
:100BD800F80B0008FC0B0008F8B500BFF8BC08BC0F
:100BE8009E467047F8B500BFF8BC08BC9E467047E3
:040BF800AD01000843
:040BFC008901000863
:04000005080009A145
:00000001FF
